:020000022000DC
:1060000000000120BD620200E5620200E7620200BA
:10601000E9620200EB620200ED6202000000000093
:10602000000000000000000000000000EF6202001D
:10603000F162020000000000F3620200F56202005B
:1060400011B10200F76202000DB9020039370300F6
:10605000F7620200F7620200C9B40200F7620200B0
:10606000F7620200F7620200F7620200F7620200C4
:10607000F7620200F7620200F7620200F7620200B4
:10608000F7620200597E0200F7620200F762020026
:10609000F7620200F762020045320300F762020075
:1060A000F7620200F7620200F7620200F762020084
:1060B000F7620200F762020000000000000000002A
:1060C000F7620200F7620200F7620200F762020064
:1060D000F7620200F7620200F762020000000000AF
:1060E00000000000000000000000000000000000B0
:1060F00000000000000000000000000000000000A0
:10610000000000000000000000000000000000008F
:10611000000000000000000000000000000000007F
:10612000000000000000000000000000000000006F
:10613000000000000000000000000000000000005F
:10614000000000000000000000000000000000004F
:10615000000000000000000000000000000000003F
:10616000000000000000000000000000000000002F
:10617000000000000000000000000000000000001F
:10618000000000000000000000000000000000000F
:1061900000000000000000000000000000000000FF
:1061A00000000000000000000000000000000000EF
:1061B00000000000000000000000000000000000DF
:1061C00000000000000000000000000000000000CF
:1061D00000000000000000000000000000000000BF
:1061E00000000000000000000000000000000000AF
:1061F000000000000000000000000000000000009F
:1062000010B5054C237833B9044B13B10448AFF3F0
:1062100000800123237010BD5023002000000000E7
:1062200050EC030008B5034B1BB103490348AFF31F
:10623000008008BD000000005423002050EC030043
:10624000A3F5803A704700BF174B002B08BF134BD4
:106250009D46FFF7F5FF00218B460F461348144A71
:10626000121A0DF099FC0E4B002B00D098470D4BE5
:10627000002B00D098470020002104000D000D489D
:10628000002802D00C48AFF300800DF045FC200040
:10629000290006F08DFE0DF02BFC00BF0000080069
:1062A000000000000000000000000120502300203A
:1062B0001039002000000000000000000649074AD5
:1062C000074B9B1A03DD043BC858D050FBDC04F09D
:1062D00017FBFFF7B9FF0000E0ED0300602200208C
:1062E00050230020FEE7FEE7FEE7FEE7FEE7FEE7BD
:1062F000FEE7FEE7FEE7FEE7704700BF00B583B0AC
:10630000044B0093044A402300F036F803B05DF8D4
:1063100004FB00BF1D6302007023002002B32DE9BF
:10632000F843114B114E8846144643F001090327E8
:106330000025224608EB0501002007F029F9034655
:106340001D444FF47A40E41A23B9337833B1C84777
:10635000013F06D001233370002CEAD1BDE8F88359
:1063600070473770BDE8F883E03E03006C230020DF
:10637000704700BF07F012BCF0B595B000241D4671
:106380000E460846174604F095F930462346082283
:10639000099505A91A9D08970D950A948DF82C402A
:1063A0000C9404F0EBF99DF814308DF81140DDE900
:1063B000061003F00302012ACDE9020128D0022AC7
:1063C00004D0304604F07AF915B0F0BDBDF816508F
:1063D000C3F3C2038DF81030C5F389150827082DC3
:1063E0002C4628BF08243B4622460EA9304604F01E
:1063F000C5F92D1B214608AB02AA0EA8274400F0C0
:10640000ABFE002DEBD1304604F058F915B0F0BDCD
:10641000BDF81470059DC7F38312C3F3C2040EA91F
:106420003046920008238DF81040C7F3831704F01C
:10643000A5F9C5F3952508AB3A4628460EA9009361
:1064400002AB00F011FE304604F038F915B0F0BD93
:10645000014B01221A707047F4230020704700BFDF
:1064600000B583B0044B0093044A4023FFF784FF38
:1064700003B05DF804FB00BF81640200B423002078
:1064800038B50E480E4D03780E4CEB5C0025257098
:10649000D2B253B1043005F03FFF58B90A4B1B7814
:1064A00013B12378002BFCD038BD0C3005F08AFCEA
:1064B0000028F3D001F0B0F8F0E700BF6022002020
:1064C00084380020F4230020B02300202DE97043FD
:1064D00019481A4A0378D35C88B02BB3043005F00E
:1064E0007BFE174D0FCD6C460FC495E80F004FF0A3
:1064F000EB7684E80F004FF006084FF0FF394FF0BD
:10650000FF344FF0FF350C48069600226946CDE96E
:106510000089CDE9024504F081FD48B9094B00220C
:106520001A7008B0BDE870830C3005F0DDFBD8E7C9
:1065300001F072F8F2E700BF6022002084380020EA
:10654000F43E0300B0230020F0B5154D0FCD89B007
:106550006C460FC495E80F004FF0EB7C84E80F0009
:1065600006264FF0FF374FF0FF344FF0FF350D4A4E
:106570000D48CDF818C06946CDE90067CDE9024560
:1065800004F04CFD20B9094B01221A7009B0F0BD8E
:1065900001F042F8054B01221A7009B0F0BD00BFAE
:1065A000F43E03005164020060220020B02300206A
:1065B00038B50A4DFFF7DEFE0421284600F0D2FC74
:1065C000074B01245C71FFF7BFFF05F110000421A8
:1065D00000F0C8FC034B5C7138BD00BFB8ED030090
:1065E000742200207C220020064B074810B50022B0
:1065F0001A7004F013F8044610B9044804F008F9BE
:10660000204610BDC8240020D4EC03005C3F0300EA
:1066100099B10E4B0E495B1ADB0815D030B400223D
:106620000C4D02E0013293420BD035F822408442F7
:10663000F8D151F8320030BC7047054951F83000AC
:106640007047002030BC704718467047B8ED030013
:10665000E8EC030050230020094B013903EBC00094
:1066600003290BD8DFE801F0040208060420704774
:1066700002207047407970470079704700207047CA
:10668000E8EC03002DE9F0438C4CD4E901239A4255
:1066900085B060D00023C4F81834BFF34F8FA568CD
:1066A000EAB2D31C04EB830114F82330580718D541
:1066B00066680B7803F00303012B42D0022B03D151
:1066C0004B88023505EB9315EAB2D4F81804D31CB5
:1066D00004EB830128B9AE4239D914F823305B07A3
:1066E000E7D404EB82026B1CD2680192DBB204EBAC
:1066F000830302F00302DB680293022A05F102061B
:106700002DD0012A00F08D80D4F810543DB12B68B3
:1067100028469B689847EB681D68002DF7D16848AC
:10672000684B6949C01AC008000440F0020000F03C
:10673000D1F8D4E90130C01A18BF012005B0BDE876
:10674000F0830B880235C3F383131D44BCE7A660B6
:1067500005B0BDE8F083002005B0BDE8F083BDF8CA
:1067600006305A48C3F389184546502D28BF502596
:1067700065F38F1305F10801ADF8063003F050FF03
:1067800007460028C0D003F095FF002301A9082286
:10679000384603F0BFFFF343DBB20133B5EB830FA1
:1067A0004FEA8309F1B277D9A5EB0905033104EB70
:1067B000810108234A463846EDB203F0ABFF444955
:1067C0002A4609F10803384603F0A4FF08F103083C
:1067D00006EB9806D4F81834002B6AD1D4F810547C
:1067E00065B1EB685A7928463946002A5DD02B6896
:1067F0001B689847EB681D68002DF2D1384603F0FE
:106800005DFF00230DF103008DF8033001F090F9D6
:10681000D4F8183403B9A6609DF8030001F0AEF96E
:1068200087E7BDF804302948C3F38312062A28BF3E
:106830000622911C62F389138900ADF8043003F03D
:10684000EFFE074600283FF45FAF03F033FF00235D
:10685000082201A9384603F05DFFBDF8043013F4A7
:10686000707FB7D06FF00108A8EB05080825F1B2DA
:1068700003312B46042204EB8101384603F04AFF22
:10688000BDF80420013608EB0603C2F383129A42D6
:1068900005F10405EBD89DE703312A4604EB81019D
:1068A0000823384603F036FF90E71D68002D98D185
:1068B000A4E7384603F002FF3BE700BFC8240020EE
:1068C00018ED0300E8EC0300443F0300D4EC0300A0
:1068D000D42400202DE9F04F5E4C87B000230646FB
:1068E0000DF10B008DF80B300F4601F021F9D4E9C2
:1068F000015303F580735B1B012B7DD804F21C4808
:1069000004F5836A04F214491AE0BDF80E30C3F3AB
:1069100089130333090C0BEB930B4846019102F0EA
:10692000DFFE0199002839D04046C4F808B002F0D3
:106930009BFED4E9013202F58072D21A012A5CD89A
:106940000121404602F090FE504602F0B9FE484652
:1069500002F0B6FEA368DAB2D11C04EB810014F891
:10696000211001F0040C490728D404EB8202591CC1
:10697000D2680392C9B204EB810102F00302012A3A
:10698000C96803F1020B30D0022ABED0002148466C
:10699000019102F0A5FE01990028C5D14046C6E745
:1069A00043880EEB9313DAB2D11C04EB810014F888
:1069B000211001F0040CBCF1000FD6D0017801F0D9
:1069C000030101290BD0022903F1020E02F1030198
:1069D000E6D004EB8100BCF1000FEFD1C5E70288DF
:1069E0000233C2F383121344DDE7BDF80C30C3F366
:1069F0008313090C9B4490E72B46DAB2033202332F
:106A000005219DF80B0044F82210636001F0B6F8F0
:106A10000021114802F0E2FD80F31000F1006B1C30
:106A200001F03801DBB2EDB204EB830341F0010168
:106A30000004033540EA164641EA8727DE6044F841
:106A4000257023781BB1FFF71DFE0028FBD107B08E
:106A5000BDE8F08FC8240020E42800202DE9F04F85
:106A6000634C87B0002306460DF10B008DF80B3008
:106A70000F46904601F05CF8D4E9015303F58073AA
:106A80005B1B022B7FD804F21C4904F5836B04F2D4
:106A9000144A1BE0BDF80E20C2F389120332090C20
:106AA00003EB92035046CDE9003102F019FE019943
:106AB00000283AD0009BA360484602F0D5FDD4E9F7
:106AC000013202F58072D21A022A5DD801214846AD
:106AD00002F0CAFD584602F0F3FD504602F0F0FD08
:106AE000A368DAB2D11C04EB810014F8211001F084
:106AF000040C490729D404EB8202591CD268039282
:106B0000C9B204EB810102F00302012AC96803F152
:106B1000020331D0022ABDD000215046CDE9003118
:106B200002F0DEFD01990028C4D14846C5E743883C
:106B30000EEB9313DAB2D11C04EB810014F8211090
:106B400001F0040CBCF1000FD5D0017801F0030175
:106B500001290BD0022903F1020E02F10301E6D054
:106B600004EB8100BCF1000FEFD1C4E702880233CF
:106B7000C2F383121344DDE7BDF80C20C2F3831285
:106B8000090C13448EE72B46DAB203320333452156
:106B90009DF80B0044F82210636000F0EFFFAB1C7F
:106BA000DBB204EB830300211248C3F80C8002F02F
:106BB00015FD80F31000F1006B1C01F03801DBB211
:106BC000EDB204EB830341F041010004033540EAD8
:106BD000164641EA8727DE6044F8257023781BB10A
:106BE000FFF750FD0028FBD107B0BDE8F08F00BFD4
:106BF000C8240020E42800202DE9F04F684C89B01B
:106C0000002506460DF113001F468DF813508846E7
:106C1000039200F08DFFD4E9015303F580735B1BF1
:106C2000032B00F2828004F21C4904F5836B04F20A
:106C3000144A1BE0BDF81620C2F389120332090C76
:106C400003EB92035046CDE9013102F049FD029970
:106C500000283BD0019BA360484602F005FDD4E923
:106C6000013202F58072D21A032A5FD80121484608
:106C700002F0FAFC584602F023FD504602F020FDD7
:106C8000A368DAB2D11C04EB810014F821C01CF017
:106C9000040F0CF0040128D104EB8202591CD268C5
:106CA0000592C9B204EB810102F00302012AC9680E
:106CB00003F1020332D0022ABCD000215046CDE9B4
:106CC000013102F00DFD02990028C3D14846C4E706
:106CD00043880EEB9313DAB2D11C04EB810014F855
:106CE000211001F004010029D6D090F800C00CF06A
:106CF000030CBCF1010F0BD0BCF1020F03F1020E2B
:106D000002F1030CE4D004EB8C000029EDD1C3E7C1
:106D100002880233C2F383121344DCE7BDF8142067
:106D2000C2F38312090C13448CE72B46DAB2033208
:106D3000043385219DF8130044F82210636000F0AD
:106D40001DFFAA1CEB1CDBB2D2B204EB830C04EBDC
:106D50008202039B1348D3600021CCF80C7002F030
:106D60003DFC80F31000F1006B1C01F03801DBB238
:106D7000EDB204EB830341F081010004033540EAE6
:106D8000164641EA8821DE6044F8251023781BB1BD
:106D9000FFF778FC0028FBD109B0BDE8F08F00BFF9
:106DA000C8240020E42800202DE9F04F6B4C89B066
:106DB000002506460DF113001F468DF81350884636
:106DC000039200F0B5FED4E9015303F580735B1B19
:106DD000042B00F2828004F21C4904F5836B04F258
:106DE000144A1BE0BDF81620C2F389120332090CC5
:106DF00003EB92035046CDE9013102F071FC029998
:106E000000283BD0019BA360484602F02DFCD4E94A
:106E1000013202F58072D21A042A5FD80121484655
:106E200002F022FC584602F04BFC504602F048FCAF
:106E3000A368DAB2D11C04EB810014F821C01CF065
:106E4000040F0CF0040128D104EB8202591CD26813
:106E50000592C9B204EB810102F00302012AC9685C
:106E600003F1020332D0022ABCD000215046CDE902
:106E7000013102F035FC02990028C3D14846C4E72D
:106E800043880EEB9313DAB2D11C04EB810014F8A3
:106E9000211001F004010029D6D090F800C00CF0B8
:106EA000030CBCF1010F0BD0BCF1020F03F1020E79
:106EB00002F1030CE4D004EB8C000029EDD1C3E710
:106EC00002880233C2F383121344DCE7BDF81420B6
:106ED000C2F38312090C13448CE72B46DAB2033257
:106EE0000533C5219DF8130044F82210636000F0BB
:106EF00045FEA81CEA1C2B1DC0B2DBB204EB8000CF
:106F0000D2B204EB830C04EB8202039BC36000212A
:106F1000129B1348D760CCF80C3002F05FFB80F373
:106F20001000F1006B1C01F03801DBB2EDB204EB94
:106F3000830341F0C1010004033540EA164641EAEB
:106F40008821DE6044F8251023781BB1FFF79AFBF7
:106F50000028FBD109B0BDE8F08F00BFC824002095
:106F6000E428002030B4154DD5F810140446002054
:106F700071B10B4601E01B6853B1DB681A7982429C
:106F8000F9D101300A28F3D14FF0FF3030BC7047FF
:106F9000E3681871D5F810344BB1DA68E368126809
:106FA0001A60D5F81034DB681C6030BC7047C5F837
:106FB0001044E268136030BC704700BFC824002052
:106FC00038B5084BD3F8104401251D704CB1E36867
:106FD0005D71236820465B689847E3681C68002C55
:106FE000F5D138BDC824002030B5C38885B004462B
:106FF0000D461BBB217A05291ED0627A82B9134A3D
:10700000A08852F8212003920021FFF701FB039A88
:107010000F490346284605B0BDE8304002F0DCBB0E
:10702000A088FFF719FB0B4B0B4953F8202028468B
:1070300002F0D2FB217AE2E705B030BD074A0092A8
:107040000749084A284602F0C7FBD3E7344003004B
:10705000943F030010400300903F0300883F03006B
:10706000703F0300683F03002DE9F04385B04FF007
:10707000000C0C9C814694F80C8084F80CC00E46E1
:107080001746184621461D46FFF7AEFF062F09D8C2
:10709000DFE807F0042E343B444F1F0049462046EA
:1070A00002F09AFB2B7A052B05D06B7A5BB9274946
:1070B000204602F091FB204602F082FB84F80C800F
:1070C00005B0BDE8F083224A2249204602F084FB45
:1070D000EDE7D6E90413F2680393B3680291CDE9B2
:1070E00000324946D6E90023204602F075FBD9E775
:1070F00032684946204602F06FFBD3E7D6E9002309
:107100004946204602F068FBCCE7B3680093D6E915
:1071100000234946204602F05FFBC3E7D6E902326E
:1071200001920093D6E900234946204602F054FB21
:10713000B8E7D6E90321B3680291CDE900324946A8
:10714000D6E90023204602F047FBABE7A03F03004F
:10715000883F0300903F0300082900D970472DE9BC
:10716000F04F9B4683B000241B7B8BF80C400D46F0
:1071700006465946104690460193DFF8D0902C4FB2
:10718000FFF732FF05E0325D013402F025FB082CE9
:1071900009D0A54239465846F5D84946013402F08F
:1071A0001BFB082CF5D12349DFF8A490224C234F78
:1071B000584602F011FB4FF0000A0DE0D15D11F0CE
:1071C000970F08BF2E22214658460AF1010A02F005
:1071D00003FBBAF1080F10D0554505D916F80A205F
:1071E0007E2AEBD92E22EEE7494658460AF1010ADB
:1071F00002F0F2FABAF1080FEED198F80830052B38
:1072000002D098F8093063B90D49584602F0E4FA03
:10721000584602F0D5FA019B8BF80C3003B0BDE85C
:10722000F08F084A0849584602F0D6FAECE700BF4A
:10723000A43F0300B03F0300B43F03004AEB030048
:10724000A03F0300883F0300903F0300AC3F0300D2
:107250009C3F030038B5174B1D783DB3164B19689A
:10726000C0B200230C4604E00133AB4204F1080431
:107270001CD011F833209042F6D104F01BF963784A
:10728000A3F10103B3FA83F35B09834200D038BD55
:107290000A4BD3E900231343F9D1094B0948196874
:1072A0000022BDE83840490800F0DABB00231B7813
:1072B000FFDE00BF80290020C0290020A82900206F
:1072C00084290020882900202DE9F04FDFF854821E
:1072D00098F8003083B0002B00F01981DFF8489255
:1072E0008C4F8D4E00254FF0010A3C6814F8350094
:1072F00004F0E0F804EBC50314F835405B784FEA7E
:10730000540C14F0010E16F80C10A3F10103B3FA9B
:1073100083F314BF0A0901F00F025B09042A00F28B
:10732000A080DFE802F0725D32200300834240F06B
:10733000AB80BEF1000F0CBFF0230F2303EA010363
:107340000CBF03213021194306F80C1098F80020D7
:1073500001359542C9DBD9E90023134340F0CD80C4
:1073600003B0BDE8F08F83427BD0BEF1000F0CBFAD
:10737000F0230F2303EA01030CBF0421402119432A
:1073800006F80C1098F80020E2E783426CD1BEF1B9
:10739000000F0CBFF0230F2303EA010398F800202D
:1073A0000CBF03213021194306F80C10002AD2D05B
:1073B000D7F800C00023614603E0934201F10801C1
:1073C000C6D01CF83300A04203F10103F5D14B688D
:1073D000002BBDD020460121984798F80020B7E740
:1073E000834219BF0020034602232020BEF1000F74
:1073F0000CBFF0220F2201EA020118BF03460B4323
:1074000006F80C3098F80020A2E7834229D1BEF19B
:10741000000F14BF0F23F02303EA010314BF102150
:10742000012119430DF107004FF0000306F80C107D
:107430008DF8073000F07CFBD9E90032A4F120017F
:10744000C4F120000AFA01F12AFA00F001430AFA15
:1074500004F4114323439DF80700C9E9003100F00B
:107460008DFB98F8002073E7BEF1000F0CBFF023EE
:107470000F2303EA01030CBF01211021194306F871
:107480000C1098F8002063E7BEF1000F14BF0F2323
:10749000F02398F80000194006F80C1098B1D7F8BE
:1074A00000C00023624603E0834202F108020AD0D2
:1074B0001CF83310A14203F10103F5D1536813B155
:1074C0000021204698474FF000030DF107008DF88A
:1074D000073000F02DFBD9E90032A4F12001C4F1FE
:1074E00020000AFA01F12AFA00F001430AFA04F432
:1074F00022EA010123EA0403ADE7084B08481968B2
:107500000022490800F0ACFA03B0BDE8F08FDFF8C4
:10751000189020E7C0290020B029002084290020ED
:107520008829002080290020A8290020092A43D981
:107530002DE9F04182B0144606460D4603F06EFE7A
:10754000002832D0214A2249224B16600D70224871
:107550001C60002110220CF01FFB204B002000219A
:107560006C1EC3E90001E4B245B3DFF87C8006EB92
:10757000C404032702E0A64220D01C469DF8063032
:10758000A57820788DF8047023F00703424601A9FE
:107590008DF806308DF8055003F04AFEA4F108037B
:1075A0000028E8D002B0BDE8F08103F0E7FD002834
:1075B000C8D002B0BDE8F08107207047084A0948EA
:1075C000002100F03FFA02B0BDE8F081C0290020A0
:1075D0008029002084290020B0290020A82900202B
:1075E000C9720200544003005572020070B5084D84
:1075F0002B785BB1074E00243368012113F8340067
:1076000003F0FAFE2B780134A342F5D8002070BDB8
:1076100080290020C029002000B585B00346002144
:1076200001AA44F20100CDE90111039300F004F82E
:1076300005B05DF804FB00BF10B572B6FFF7C0FCE3
:10764000FFF720F80028FBD1104B114C1149E41A28
:10765000E408240444F00100FFF73CF90E4B1B68DA
:10766000DB0700D500BE0D4944F00200FFF732F9F8
:10767000BFF34F8F0A490B4BCA6802F4E062134311
:10768000CB60BFF34F8F00BFFDE700BFE8EC030006
:1076900018ED030058400300F0ED00E064400300E3
:1076A00000ED00E00400FA05D0E90223D1E902016F
:1076B000994208BF90422CBF01200020704700BFB4
:1076C0002DE9F04F2DED028B85B0064600F082FBD0
:1076D00040B1B54AD2E9003113F1807341F10001A4
:1076E000C2E900310021304600F090FBAF4C60B1A0
:1076F000236853B1AE4B25681B7823B11DB12B7F96
:10770000002B40F01C81002323600121304600F053
:107710007DFB002840F0F680A64803A901F0B0FEEA
:1077200078B3A54DDFF88882A24F0BE0002B00F064
:10773000CD8003A9384601F0D3FE03A9384601F0F5
:107740009FFEF0B10378012B12D0022BEED1284618
:107750004FF0000903F094F830B180F81C902846EF
:1077600003F08EF80028F8D1012388F80030E0E714
:1077700041682368994200F0BA80284603F08AF8ED
:10778000D7E7DFF834828D4FDFF81C9208EE106ADD
:1077900037E0404603F074F805463846AB68EA68BF
:1077A0000193009200F042FB854E8446D9E9000126
:1077B000D6E9002310EB0C0041F10001994208BF0B
:1077C0009042DDE9002303D210F1807041F1000105
:1077D000B3EB000A62EB010BBAF1010F7BF100037E
:1077E00029DBBAF5350F6BD2AA684FF49603002156
:1077F000384600F069FA00285AD00D281FD000231F
:107800002360404603F042F8002873D02368002B21
:10781000BFD02368D0E90201D3E90223994208BF0F
:10782000904248D223681B7F002BB2D0216840468B
:1078300003F012F8ADE70021384600F0DBFA5C4BAC
:107840001B78002BDBD02B7F002BD8D0384600F0E4
:10785000EDFA8446D9E90001D6E9002310EB0C00CB
:1078600041F10001994208BF904203D210F18070AB
:1078700041F10001D5E90223994208BF904259D352
:107880002B6903B92B77D5E9053098472969002979
:10789000B5D02B7F002BB2D0D5E90223521843F18B
:1078A0000003C5E902232946404602F0D5FFA6E7BA
:1078B0002368BBB1256005B0BDEC028BBDE8F08F3D
:1078C000384600F0B3FA3F4A02448EE743681A7F15
:1078D000002A7FF42EAF01221A774168284602F071
:1078E000BBFF26E718EE100A00F0C0F9E2E700231C
:1078F00023601EE72368002BDDD118EE100A00F08C
:10790000B9F9D8E72D482E4D00F090FA264BD3E96F
:107910000089D5E9002318EB000849F100099945D1
:1079200008BF904503D218F1807849F10009C5E9F4
:107930000089F1E62946404602F08EFF5FE71F48C6
:1079400000F074FA184A1E4BD2E90089D3E90023EB
:1079500018EB000849F10009994508BF904503D28A
:1079600018F1807849F10009D5E90223994508BF4B
:10797000904529D32B6903B92B77D5E90530984772
:10798000296900293FF4BFAE2B7F002B3FF4BBAE2B
:10799000D5E90223521843F10003C5E90223064842
:1079A000294602F059FFAEE6C8290020482A0020E7
:1079B000D02900202C2A00208440030084220020AB
:1079C000402A0020FFFFB4000248294602F044FF8D
:1079D00099E600BF8440030010B5134B13491B68A0
:1079E000134882B058220193082301F0D1FC0446C9
:1079F00010B1204602B010BD0E4A0F4801A900F098
:107A0000D5F804460028F4D10B48012100F0D8F93C
:107A100001231946094A084800F030F9084B0122B1
:107A200020461A7002B010BD80400300D429002007
:107A30002C2A0020C176020084220020FFFF7F0054
:107A4000D02900204AB1A1F101010368B1FA81F106
:107A50004909C3E90412002070470720704700BF9E
:107A6000037F0BB100207047F0B5826183B00446FC
:107A70001A480D4600F0DAF9194B1A49D3E90023E8
:107A8000D1E90067121843F10003BB4208BFB242BC
:107A900003D212F1807243F100035219216943F1BC
:107AA0000003C4E9022301B125610F4801A901F0D7
:107AB000A9FC48B100254460057001A90A4801F0FD
:107AC000CFFC20B903B0F0BD042003B0F0BD0348E3
:107AD00000F0B0F9284603B0F0BD00BF84220020BA
:107AE000C8290020402A00202C2A002030B500257B
:107AF00083B00446057701A90B4801F083FC78B1F7
:107B000001224460027001A9074801F0A9FC08B9EC
:107B100003B030BD054800F08DF9284603B030BDF4
:107B2000042003B030BD00BF2C2A00208422002096
:107B300070B4EFF3108472B60D4B9A68AAB90D4970
:107B40000D4E01259D60D1F8805035401D60C1F873
:107B50008060D1F884505D604FF0FF33C1F884300D
:107B6000027004B962B670BC704701230370F8E775
:107B70007838002000E100E0FC06FFBD094B9A6860
:107B80007AB170B910B4EFF3108172B6064A1C686E
:107B900014605C685460986001B962B65DF8044B8B
:107BA000704770477838002000E100E070B5274C3E
:107BB0004379274E04EBC30546F823202D79002D89
:107BC00037D103680A88C3F8082590F904308A7809
:107BD000002B26DB03F1604303F561435201D2B26F
:107BE00083F8002390F90430002B07DB194903F0D8
:107BF0001F0501225B09AA4041F823204279164B58
:107C0000164D44F83200581B04EBC204C00801238F
:107C100000041349237140F00300FEF75BFE0020CF
:107C200070BD104903F00F0352011944D2B20A7615
:107C3000D8E70A4B08480C49C01AC008000440F0B5
:107C40000200FEF747FE082070BD00BF4C2A00204E
:107C5000542A002000E100E028ED0300E8EC0300D6
:107C6000B4400300FCEC00E09040030003680122F4
:107C70001A607047036801225A607047F0B40468C4
:107C80004FF480358D40C4F80853066801F1500464
:107C9000C6F84853A4000668A4B20027375182B042
:107CA00036590468019601F5A87122F07F42019EC1
:107CB00044F821200268C2F8445313B10368C3F8A2
:107CC000045302B0F0BC70472DE9F04704464FF46E
:107CD000803600688E40C0F848632068C0F80863AA
:107CE000206800EB81058A46D0F80415D5F84005D8
:107CF000C5F840150AF15005AD002768ADB24FF048
:107D0000000847F8058082B0401A7F59009720F09C
:107D10007F40012822F07F479946009A41D022688F
:107D2000D2F80455C2F844637A1B22F07F42012A3C
:107D30000AF5A87125D0226842F821702068D0F891
:107D400004557A1BC9F1FF13013A03F57F4322F072
:107D50007F42934211D342B1C0F8446323680020AC
:107D6000C3F8046302B0BDE8F087013740F8217022
:107D70002068D0F804359D42EED00D2002B0BDE859
:107D8000F08720680D4B013740F8217043F0010364
:107D90004FF4806098472068D0F804359D42DBD0CE
:107DA000EBE7064A4FF4806042F0010290472268F8
:107DB00042F8058052590192019AB0E7D040030081
:107DC00002680223C2F8443311B10268C2F80433D6
:107DD000704700BF0368D3F8040100B97047002260
:107DE00082B0C3F80421D3F804310193019B012030
:107DF00002B0704702684FF4803303FA01F1C2F811
:107E000048130368C3F80813704700BF5031890056
:107E1000036889B2585800B9704700225A5082B09E
:107E20005B580193019B012002B070470368D3F8AF
:107E30000405704790F90430002B09DB5A09054806
:107E4000403203F01F03012101FA03F340F822300E
:107E5000704700BF00E100E0024A034B10681B6856
:107E6000184700BF4C2A0020542A00200223F0B5F6
:107E70000B8000F580550830002A33D02B4F4FF689
:107E8000FF764FF0010C036801331FD0B0F802E019
:107E90000EF1030400EB8404A5421DD38388B34292
:107EA00015D003889BB183685C1C10D03C689C4251
:107EB00002D23B60B0F802E00B88033373440B80BE
:107EC0004388033300EB83008542DCD8F0BD82F8A1
:107ED00000C0B0F802E0EFE7012313704FF48063B5
:107EE0000B80F0BD114E4FF6FF7403680133EDD0E7
:107EF0004388DA1C00EB82029542EFD38288A242CB
:107F000009D002883AB18268571C04D03768BA4257
:107F100084BF326043880A88033213440B8043884D
:107F2000033300EB83008542DFD8F0BD902A0020A8
:107F3000F0B543688C461BB1324AD468A3423CD2A8
:107F40000023314EACF8003073684FF0010E03F59A
:107F500080544FF6FF7708339C420ED8BEF1020FD3
:107F6000ACF800E006F114064AD0736803F58054BB
:107F700008339C424FF0020EF0D91A680132EDD05E
:107F80005A88033203EB82029442E7D39D88BD42B4
:107F900009D01D883DB19D68691C04D00168A942C3
:107FA00005D01346D8E79442D8D91346E5E7174AD7
:107FB0004360138903810120F0BD12699342BFD849
:107FC00013F00305BCD1114A048912899442B7D138
:107FD00004689A689442B3D10B484268934203D92B
:107FE00002F58052934207D38269934208D902F581
:107FF0008052934204D20125ACF800500120F0BD1C
:108000000020F0BD3C230020982A00207C2A00207C
:108010002DE9F04F9C4E8BB004464FF6FF77356844
:10802000002D00F0CB802A78531E052B00F29081A2
:10803000DFE803F05C2323030341002C40F0C580FC
:108040002B79012B00F0C082022B00F0DA80002B8C
:1080500000F092820DF11408C8E902440594C8F8B2
:10806000104048F20E6406942B78013B052B4DD846
:10807000DFE803F0756685799949B5F814A0002CFE
:1080800040F05482DFF82082A97D0AEB8A0308EBD6
:1080900083034FEA8A091C895B6803EB8404062981
:1080A00000F27D84DFE811F02B021802FE01EB01E3
:1080B000CA01B0019601002C40F08780DFF8ECC1C6
:1080C0009CF80C30002B00F0C4809CF800308CF839
:1080D0000C40013B062B00F23B81DFE813F0190353
:1080E000F30224010C013901DD02E900002C40F00B
:1080F00015822B79032B00F29F80DFE813F05F01DC
:1081000072005401340105238DF814305F4C04F1E2
:10811000100554F8043B404603B19847A542F8D1F6
:108120005B495C480024346001F0DAF95A480121C7
:1081300001F0A8FA00287FF472AF0BB0BDE8F08F11
:1081400001238DF814302B89ADF82030AB88ADF8C1
:108150002230EB68079300238DF82430D6E7002304
:108160008DF81430D2E703238DF81430EB88ADF886
:1081700020302B89ADF82230EB680793C6E7022345
:108180008DF814302B89ADF82030AB88ADF8223053
:10819000EB680793AB7DA3F10603B3FA83F35B09A6
:1081A0008DF82430B2E704238DF81430EB88ADF855
:1081B00020300023ADF822300793A7E73449354833
:1081C00001F05EF9054630602DE74FF406440DF1ED
:1081D00014080023C8E90033C8E90233C8F8103096
:1081E00041E7DFF8C48098F80030022B12D098F8ED
:1081F0001430022B00F0AA83284B012100221970B1
:108200005A600DF114080024C8E90344C8F8084076
:10821000059428E700239A001A4408EB8203002003
:1082200059680090082308F822001D4A1D4801F0F3
:108230009DFE002881D03568184A0DF114080023EE
:10824000C8E9023353600593C8F8103048F20D6452
:1082500009E79CF80030072B09D8DFE813F0DC02AF
:10826000080008001003FA0229002900D602013B89
:10827000062B6DD8DFE813F04C02260257003F00B2
:108280006C0010021C0000BF942A0020642A002009
:108290008C2A00204C2B00205C2B0020742A00200C
:1082A000DC4003003C230020982A00207C2A002088
:1082B000BB4BBC4A1968BC4800230093CCF804307F
:1082C00007238CF80030082301F050FE0446002CF0
:1082D0003FF433AF35680DF1140841F61D52002309
:1082E0009442C8E90333C8F80830059308BF1C4618
:1082F0003FF4B9AE18E3BCF80230DFF8C88203EBF4
:10830000830308EB8308D8F80C30002B40F04D8233
:1083100004228CF80020D8F80410A348012201F0B0
:10832000C3FE0446D3E7DCF804209D4853888488C4
:1083300001689D4803339BB29B0001EB840100243C
:10834000009403248CF8004001F010FE0446BEE7C0
:108350000DF114080023C8E90333C8F80830059369
:1083600048F20E647FE68E4C904A21688E48DFF812
:1083700054824FF0000985F804900823CDF800904E
:1083800001F0F4FD8A4B25685B88A18803EB830329
:1083900008EB830208F8239053682360022355609A
:1083A0001181A38045E77E4A7F481168002302249B
:1083B0002B719480012201F077FE3AE7784B794ADD
:1083C0001968794801232B7100230093082301F0D9
:1083D000CDFD2EE72A4641F61D5409EB0A0108EBB4
:1083E0008101EB880889033303440B81D144EB8876
:1083F00008EB8908C3F57F43B8F80A10FD330B4436
:108400001546A8F80A3066E76A4B6B4A1C88516823
:1084100065486A4A00234FF0060C85F816C00093A1
:10842000042301F0A3FD18BB04EB840408EB8408CB
:10843000012388F810300BB0BDE8F08F5E48AB69BF
:108440005C4903604FF0000BC0F804B0FFF770FD0B
:10845000002800F06C820223AB7504235248CDF84B
:1084600000B02146EA1801F081FD00283FF465AE16
:10847000AB7D3268022B48F20D64B7D9ADE7EB88CB
:108480002A6949484FF0010C04F10C01002485F8D9
:1084900016C09B00009401F069FD0028E8D10BB0E4
:1084A000BDE8F08F2B694048002B14BF0323012344
:1084B0000022AB7504F108010092042305F10C02BF
:1084C00001F054FD00283FF438AEAB7D3268022B3A
:1084D00048F20D648AD980E7032A0CBF05230623DE
:1084E0000022AB7530480092211D042305F10802DB
:1084F00001F03CFD0028BBD10BB0BDE8F08F02239A
:108500000022AB750423009227482146EA1801F0A7
:108510002DFD0028ACD10BB0BDE8F08F284B002218
:108520005A604FF406440DF1140852E6AB7DDFF8B3
:108530009480022B08D90AEB8A0208EB8202EB88AE
:10854000118903330B4413814FEA8A0909EB0A01AD
:10855000EB8808EB8101C3F57F434A890DF11408CC
:10856000FD3313440022C8E903224B81C8F80820D8
:1085700005924FF4064476E502232B71CDE90644BB
:108580000DF11408EB68059340460DF11201FFF759
:10859000CFFC002840F0A08148F2096419E600BF32
:1085A000602B0020E44003003C230020DC4003005B
:1085B0007C2A00206C2B0020582A0020D840030081
:1085C000742A0020982A0020BC4B1B78002B00F056
:1085D0009D81DFF8ECE2BEF80490B9F1010F12D8EA
:1085E000DFF8F082039409EB890208EB820213782A
:1085F00083B109F1010399B201299946AEF804301B
:1086000002F11402F3D9AE48082200210BF0C4FA9B
:108610003568F6E55368DEF8001003F5805C03F179
:10862000080A002900F070814B88033301EB8301B5
:108630008C4506D8039BCEF80030DAE79C45F9D983
:1086400019460B680133F5D04B88033301EB8303E4
:108650009C45EFD38C88BC42F0D0B1F800B0BBF1A0
:10866000000FEBD088680130E8D0EB88CEF800101E
:10867000A342D6D100230093924A9348042301F0E9
:1086800075FC002840F0808109EB890908EB890816
:10869000012388F8103050E5BCF80220DFF834825E
:1086A0009300134408EB830806200023D8F8041035
:1086B000864A00938CF800000823834801F056FC9A
:1086C000044604E6BCF80200DFF80882DCF8042067
:1086D00000EB800308EB83034FEA800E596801F535
:1086E0008055002A40F0E48001F10802AA426DD3CF
:1086F000704408EB8008D8F80C30002B55D10420CA
:108700008CF800000122704801F0CEFC0446DEE542
:108710009CF80A3063B1DFF8BC81D8F80C30002235
:108720008CF80A2023B998F81020002A40F03281F2
:108730009CF80B3053B1DFF89C81D8F82030002230
:108740008CF80B2013B998F8243073B90DF1140884
:108750000023C8E90333C8F808308CF80030ACF8BF
:108760000230CCF8043005937DE4012318464FEA2B
:10877000830E0EEB030108EB8101DCF8042049684D
:10878000ACF8020001F58055002A00F00581508800
:10879000033002EB8002954200F2DA80734408EB6A
:1087A0008308D8F80C30002BA9D0494B46481968EB
:1087B00002229A8005228CF800200023012201F079
:1087C00073FC044683E5AB4292D21A461368013328
:1087D0008ED05388033302EB8303AB4288D894884E
:1087E000BC42F0D01488002CEDD094680134EAD05B
:1087F000CCF80420364C5388A588216832480333CE
:108800009BB29B0001EB850199E501238CF80030B8
:108810009CF80A307EE7DFF8BC80BCF8081098F8B6
:10882000142098F80030B2FA82F252090131B3FAFA
:1088300083F35B098CF80B20ACF8081000220121AF
:108840008CF80A30ACF802208CF80C208CF8001060
:1088500060E7BCF80220DFF87C801D4902EB820350
:1088600008EB83030C6858688D885C6008600024FE
:1088700002201D811C74888002FA00F311E7BCF805
:108880000200134CDFF84C80DCF80420A3885588E4
:1088900000EB800108EB8101033349682B444FF062
:1088A000020901F58055A38000FA09FE8CF80090BA
:1088B0005388033302EB830218E700BF742A0020B9
:1088C000702B0020D84003003C230020DC40030034
:1088D000602B0020982A00200699334A8B88EB8071
:1088E0000B882B81314800940423BDF8124001F01D
:1088F0003DFB38BB2E4B04EB840403EB84040123C3
:1089000023740BB0BDE8F08F514691E60DF11408C9
:108910002146284808220BF03FF9C8E90244059493
:10892000C8F8104048F201643568FFF79CBB0DF1B0
:108930001408C8E90200059048F20964C8F810005C
:10894000FFF791BB356848F20D6442E4012362E40D
:10895000106801303FF422AF5088033002EB8000F2
:108960008542FFF41BAF9488BC4205D014881CB12B
:10897000946801347FF43CAF85427FF60FAF024626
:1089800010680130E8D109E7356848F20D640DF14F
:1089900014081EE41846EAE601F10802FBE62A463E
:1089A00048F20E6419E500BFD84003003C230020C4
:1089B000982A0020702B00204068FFF729BB00BFD9
:1089C000094A116804290BD038B5084C15680346CC
:1089D0000121104644F8253000F046FE002038BD45
:1089E00048F20B60704700BF682B0020642A00200B
:1089F0002DE9F04F954D89B02A780023CDE9033356
:108A0000CDE90533079372B1914C04F1100554F888
:108A1000043B03A803B19847A542F8D1002420469F
:108A200009B0BDE8F08F281D02F0FF0900F038FE04
:108A30000028F3D140F6F8731B685C1C41D04FF05E
:108A4000805211695269DFF834828249C8F81030C7
:108A50004046A3F540530022C8F80C3001F058FA04
:108A600004460028DBD17C497C48DFF814A21C2393
:108A70008C2200F08DFC26464FF0030B2746D8F8D9
:108A80000C30F018F35827D0754A934279D14368D7
:108A9000744A934278D00132934222D1B9F1000F47
:108AA00040F09C80704B7149186000220193FFF7E1
:108AB000DDF9019B9B88022B0CBF042308231C4378
:108AC00028E06B4B4FF080521B6811695269581CAB
:108AD00008BF02FB01F3B6E75A1C02D0604A93427A
:108AE0000AD1031D00F5805101E0994261D01A6856
:108AF000013203F10403F8D007EB87030AEB83028A
:108B000003210BF1FF3B01370AF823101FFA8BFBFF
:108B1000BFB2506006F58056B6F5405FAFD1BBF1ED
:108B2000010F40F29080E4B2062C0ED1484C012295
:108B300000232A7004F110066B6054F8043B03A86C
:108B400003B19847A642F8D168E702D814F0FD0FA8
:108B500079D002A9414800F055FC1C2205460021AD
:108B60000BF01AF8002D68D00123013C2B700A2C61
:108B70004ED8DFE804F04B4D4B4D5F4D5F4D5C65CB
:108B80005C000133B8D1ACE707EB870300220AF899
:108B9000232099000AEB830301F1100208315244AB
:108BA000514458600137FFF761F944F00204BFB245
:108BB000B0E72D4B1A681AB307EB87030AEB830162
:108BC0000222DFF8B0C048600A810AF82320791C2D
:108BD000ACF802708FB244F001049BE7254A224BA7
:108BE000578007EB870E0AEB8E024FF0020C1968D4
:108BF0000AF82EC001375160A2F808C0BFB252E790
:108C0000022218609A804FF00109E4E700232B71DB
:108C100002A9124800F024FC1748012100F016FDBB
:108C2000044600287FF4FAAEFFF7F2F9F7E60323D3
:108C30002B71EDE701232B71EAE748F20764EEE6BA
:108C400002232B71E4E748F20A64E8E6742A002064
:108C5000642A0020F8420300C02A00204C2B002088
:108C6000DEC0ADDEFE011EF1602B0020642B002073
:108C7000141000107C2A00205C2B00203C230020D4
:108C8000982A002030B370B50D4682B0F1B10DF1D5
:108C900006010446FFF74CF918B948F2096002B022
:108CA00070BDBDF806000D4B666800EB800003EB5D
:108CB000800001210C3000F0D7FC2E606368012297
:108CC0000C3300206B60A27202B070BD48F20460E9
:108CD00002B070BD48F20460704700BF982A0020BF
:108CE00010B310B582B00DF106010446FFF720F96C
:108CF000B0B1BDF806300E4A03EB830302EB8303E9
:108D0000DA684AB1A27A3AB1DA680021013A084633
:108D1000DA60A17202B010BD48F2056002B010BD69
:108D200048F2096002B010BD48F20460704700BF0D
:108D3000982A00202DE9F047514B1B7882B083B36D
:108D40000C46002945D00A884FF6FF739A4222D07C
:108D50004B8803B34D6815F0030534D1B1F8089082
:108D600009F103039BB240F2FE32934234D8454AE4
:108D70001178074639B9508911890144194489B2DB
:108D8000B1F5806F2BD9117D89B148F2066528466F
:108D900002B0BDE8F08748F20365284602B0BDE89E
:108DA000F08748F20165284602B0BDE8F087D08B15
:108DB000918B0144194489B2B1F5806FE5D84FF029
:108DC000010841460DE048F20265284602B0BDE8C0
:108DD000F08748F20465DAE748F20865D7E7A84665
:108DE00029464FEA810A8A4402EB8A0A034401A910
:108DF0002548AAF80A3000F005FB1C22064600218F
:108E00000AF0CAFE002E2FD002234FF0000AA6F867
:108E10001480337086F816A06368336101211B4803
:108E200000F022FCF0602388338163881648B38009
:108E300001A9A6F80AA0A6F8069000F011FB47B118
:108E4000C7F804A0F268124B3A601B8987F80AA0A1
:108E50003B811048012100F0F9FB0446002896D11F
:108E6000FFF7D6F8254692E7BAF80A30C9F57F49E8
:108E700009F1FD099944AAF80A9048F2076586E7C6
:108E8000742A0020982A00204C2B0020902A0020D1
:108E90007C2A00205C2B00202DE9F04782B068B3CB
:108EA000524B1B78002B41D00C4639B30A884FF641
:108EB000FF739A4234D04B8893B34E6816F0030682
:108EC0003AD1B1F808A00AF103039BB240F2FE3296
:108ED000934234D8464A1178054639B951891089E8
:108EE0000844184480B2B0F5806F2BD9117D59B178
:108EF00048F20666304602B0BDE8F08748F20466E4
:108F0000304602B0BDE8F087D18B908B08441844FE
:108F100080B2B0F5806FEBD84FF00109484613E0FE
:108F200048F20366304602B0BDE8F08748F20166B9
:108F3000304602B0BDE8F08748F20266DAE748F250
:108F40000866D7E7B14630464FEA8008804402EB16
:108F500088080B442748A8F80A3001A900F052FA03
:108F60001C22074600210AF017FE002F32D04FF0D6
:108F700000080323A7F814903B7087F816806368F5
:108F80003B6101211C4800F06FFBF86023883B81A6
:108F90006388BB800423A7F806A0BB752B68BB6160
:108FA00001A91448A7F80A8000F05AFAC5F804800D
:108FB000FA68124B2A601B89114885F80A802B81B8
:108FC000012100F043FB0446002893D1FFF720F86D
:108FD00026468FE7B8F80A30CAF57F4A0AF1FD0A3B
:108FE0009A44A8F80AA048F2076683E7742A00208A
:108FF000982A00204C2B0020902A00207C2A002058
:109000005C2B002070B51D4B1B7882B00BB34FF664
:10901000FF739842044626D001A9194800F0F2F9DE
:109020001C22054600210AF0B7FDBDB1052301262B
:10903000EC8001A92B7012482E7100F011FA114832
:10904000314600F003FB044690B10024204602B0F4
:1090500070BD48F20164204602B070BD48F207645A
:10906000204602B070BD48F20364204602B070BDD5
:10907000FEF7CEFF204602B070BD00BF742A00206C
:109080004C2B00205C2B002010B5194B1B7882B0B4
:10909000F3B101A9174800F0B5F91C2204460021DC
:1090A0000AF07AFDF4B106232370124801A900F0FA
:1090B000D7F9114B1A780AB101221A730F4801210E
:1090C00000F0C4FA044640B10024204602B010BDAE
:1090D00048F20164204602B010BDFEF799FF204619
:1090E00002B010BD48F20764204602B010BD00BFB8
:1090F000742A00204C2B00207C2A00205C2B0020AE
:109100002DE9F047324C2478002C59D0002A5BD04E
:10911000002B59D09F88012F14D82E4E07EB8704BF
:109120008A4606EB84064FF6FF7E4FF0000834783F
:109130005CB10137BCB2022C9C8006F114064FF0E2
:109140000107F4D148F2096035E01C68756805F53F
:10915000805C002C31D06588033504EB85046445C0
:1091600005D3C3F80080E4E7AC45FAD92C4625685E
:109170000135F6D06588033504EB8505AC45F0D3A1
:10918000B4F80490F145EFD0B4F80090B9F1000FB5
:10919000EAD0A1680131E7D01C60A5888542D5D10D
:1091A00025885545D2D1A168116019680A4B5160D4
:1091B0001B8913810020BDE8F08705F10804CEE784
:1091C00048F20160BDE8F08748F20460BDE8F0872E
:1091D000742A0020982A00207C2A0020304B1B781B
:1091E000002B56D0002957D0002A55D02DE9F04148
:1091F000B2F804E0BEF1010F14D82A4D0EEB8E0335
:1092000005EB83054FF6FF774FF0000C2B7863B129
:109210000EF101039BB2022B938005F114054FF070
:10922000010EF3D148F209602EE013686C6804F572
:1092300080585BB35C88033403EB8403434505D358
:10924000C2F800C0E4E7A045FAD923461C680134FF
:10925000F6D05C88033403EB8404A045F0D39E88E9
:10926000BE42F0D01E88002EEDD09E680136EAD0B6
:1092700013601C888442D9D19B680B6012680A4B2A
:109280004A601B890B810020BDE8F08104F10803CE
:10929000D4E748F20160704748F20460704700BFAD
:1092A000742A0020982A00207C2A0020304B1B784A
:1092B000002B56D0002957D0002A55D02DE9F04177
:1092C000B2F804E0BEF1010F14D82A4D0EEB8E0364
:1092D00005EB83054FF6FF774FF0000C2B7863B159
:1092E0000EF101039BB2022B938005F114054FF0A0
:1092F000010EF3D148F209602EE013686C6804F5A2
:1093000080585BB35C88033403EB8403434505D387
:10931000C2F800C0E4E7A045FAD923461C6801342E
:10932000F6D05C88033403EB8404A045F0D39E8818
:10933000BE42F0D01E88002EEDD09E680136EAD0E5
:1093400013609C888442D9D19B680B6012680A4BD9
:109350004A601B890B810020BDE8F08104F10803FD
:10936000D4E748F20160704748F20460704700BFDC
:10937000742A0020982A00207C2A002020B119B1EC
:1093800003680B600020704748F20460704700BF1C
:1093900099B110B4B2FBF3F403FB1424A4B244B9A2
:1093A000C0E9001484608281C38120465DF8044BCB
:1093B000704709205DF8044B70470E20704700BFCE
:1093C00082B050E8022FC188B2EB324F4FF0000359
:1093D00017BF92B241EA014142EA014104E042680A
:1093E000B2EB324F08BF012340E80212002AE8D155
:1093F0008DF807309DF80730002B0CBF112000209E
:1094000002B0704730B482B050E8013F9DB2C489C9
:1094100025448489A54228BF2D1B0489A54202BF8B
:10942000BFF32F8F002207E0C5EA030540E801548F
:10943000002CE9D14FF001028DF803200193019B2C
:109440009DF803200B602AB10B880068184402B015
:1094500030BC704702F0FF03184602B030BC7047C2
:109460000A884B889A4201D00020704750E8012FAB
:10947000C2EA024240E80123002BF7D101207047E5
:1094800030B482B050E8023F1FFAA3F5C488A54269
:1094900002BFBFF32F8F00220DE0C48925448489C9
:1094A000A54228BF2D1BC3EA054540E80254002C05
:1094B000E8D14FF001028DF803200193019B9DF844
:1094C00003200B602AB14B880068184402B030BCFE
:1094D000704702F0FF03184602B030BC704700BF6F
:1094E0000A884B889A4201D00020704750E8022F2A
:1094F000C2EA224240E80223002BF7D10120704744
:109500004A09012301F01F0100EB820003FA01F177
:1095100000F080B84B0910B501F01F04012100EBE9
:109520008300A14000F068F8E04000F0010010BDA9
:1095300001F01F0201234909934000EB8100D94348
:1095400000F076B84B0901F01F0150F82300C84025
:1095500000F00100704700BF2DE9F04F01F1FF3B23
:1095600083B04FEA5B130F460546019300264FF088
:10957000010A55F8264005EB8608E44394FAA4F462
:10958000FCB1B4FA84F404EB46144FEA4619A7423E
:1095900017D904F01F0360090AFA03F105EB8000F4
:1095A0009B4600F029F820FA0BF0C30711D5D8F834
:1095B0000030DB4393FAA3F3B3FA83F44C44002B5B
:1095C000E5D1019AB24206F1010301D01E46D0E76F
:1095D0003C46204603B0BDE8F08F00BF10B4034600
:1095E00053E8000F0A4643E8002494F0000FF7D137
:1095F0005DF8044B704700BF10B4034653E8000FFA
:1096000040EA010243E8002494F0000FF6D15DF82F
:10961000044B704710B4034653E8002F42EA0100A0
:1096200043E8000494F0000FF6D15DF8044B704756
:1096300010B4034653E8002F02EA010043E8000497
:1096400094F0000FF6D15DF8044B704710B4034658
:1096500053E8000F00EB010243E8002494F0000FF0
:10966000F6D15DF8044B704710B4034653E8002F61
:1096700002EB010043E8000494F0000FF6D15DF81E
:10968000044B704710B4034653E8002FA2EB0100CF
:1096900043E8000494F0000FF6D15DF8044B7047E6
:1096A00010B40346012253E8000F40EA020143E8E8
:1096B000001494F0000FF6D15DF8044B704700BF22
:1096C00010B40346012253E8001F41EA020043E8B8
:1096D000000494F0000FF6D15DF8044B704700BF12
:1096E00010B40346002253E8000F00EA020143E8E9
:1096F000001494F0000FF6D15DF8044B704700BFE2
:10970000B8B130B4D0E90112521A0468D2B2531E73
:109710002160DBB242B101680A685C1E551C0D6015
:109720001370E3B2FF2BF6D103680020187130BC30
:1097300070470E20704700BFF0B583B00446002587
:109740000DF107008DF80750FEF7F2F9D4E900316A
:109750001A688A4210D9511E19602168A3680F68DF
:1097600012F8015C0A79268AE068DB1BDBB29A42B8
:1097700006FB050538BF0B719DF80700FEF7FEF9E3
:10978000284603B0F0BD00BF30B5054683B00023C6
:109790000DF107000C468DF80730FEF7C9F92A686D
:1097A0001368591C1160E9682A8A641AB4FBF2F440
:1097B0001C709DF80700FEF7E1F903B030BD00BF53
:1097C000826842B110B50446436901680069984750
:1097D0000023A36010BD70470EB400B582B003999A
:1097E00021B104AB01AA019300F0ACF802B05DF81E
:1097F00004EB03B0704700BF2DE9F04F164683B06D
:10980000B142DDE90C920F4605469A46C0F09580BC
:109810000B464FF00108B3FBF6F39E4208F1010836
:10982000F9D9D04538BFD04612F00103019302D1D7
:10983000B9F1000F5ED1AA68012403E00AF1FF3AF2
:1098400006FB04F4BAF1010FF8D8B7FBF4F39E421B
:10985000F6D9DFF8ECA007E0B442B4FBF6F31AD374
:10986000AA681C46B7FBF3F31AF803B0BBF10A0F62
:1098700004FB137728D02B68511CA96003F802B0B1
:10988000D5E901329A42E7D32846FFF799FFB4FBA6
:10989000F6F3B442E4D2019B9BB1B9F1000F10D0B2
:1098A0002024C84509F1FF390BD2AB682A68591C3E
:1098B000A960D454D5E901329A4214D2B9F1000F0B
:1098C000EFD103B0BDE8F08F511C2B68A9604FF0B9
:1098D0000D019954D5E901329A42CCD32846FFF7BD
:1098E0006FFFAA68C7E72846FFF76AFFB9F1000FC4
:1098F000D7D1E6E793071AD42024AA68C84502F115
:10990000010199D22B68A9609C54D5E901329A4291
:1099100009F1FF3903D2B9F1000FEFD18CE72846E6
:10992000FFF74EFFAA68B9F1000FE7D184E7BAF15B
:10993000000F0CBF30242024DFE74FF0010870E750
:10994000EC400300002900F054822DE9F04FDFF8CD
:10995000B8950C7885B0064690460D464FF00D0A36
:1099600010E00A2CB36800F0AD803268591CB16079
:10997000D454D6E901329A4280F0A0802C78002C91
:1099800000F087800135002C00F08380252CE8D181
:10999000294600270D4611F8012B2D2A00F088805A
:1099A000302A00F088802B2A7AD02A2A00F0998069
:1099B000A2F13003092B4FF000040BD804EB840410
:1099C00002EB440415F8012FA2F13003092BA4F196
:1099D0003004F3D92E2A00F09080002301E015F81E
:1099E000012F02F0FB016829F9D0252A00F07781C8
:1099F000583AD1B2202947D8202A45D8DFE812F0BA
:109A00003501440044004400440044004400440044
:109A10004400440044004301130144004400440056
:109A20004400130144004400440044004400440046
:109A3000D20044004400A2004400940044004400CA
:109A4000350101209842024638BF1A460292002C86
:109A500040F05081B80740F16E81002B40F04E82FB
:109A60001C46BBF1000FC0F20A827A0700F11A828D
:109A700007F00302022A00F0EA81CDE900475946C7
:109A80000A223046FFF7B8FE01352C78002C7FF40F
:109A900079AF337B002B40F01C8105B0BDE8F08F1F
:109AA0000D4611F8012B2D2A47F004077FF478AFFB
:109AB00047F001076EE747F002076BE73046FFF714
:109AC0007FFE5BE73268591CB16002F803A0D6E95B
:109AD00001239342FFF449AF3046FFF771FEB368AC
:109AE00043E7D8F800301A1DC8F800206A781C68CF
:109AF0002E2A05F101057FF470AF6A78A2F13003D8
:109B0000092B05F101054FF000033FF66AAF03EBA7
:109B1000830302EB430315F8012FA2F13001092959
:109B2000A3F13003F3D95CE7D8F80020111DC8F881
:109B3000001011683046CDE900470A22FFF75CFEAD
:109B40000135A2E7D8F800301A1DC8F8002017F038
:109B50000107D3F800B040F0F080BBF1000F03D054
:109B600058460AF029F80746BC4240F24381002CCF
:109B700000F04081202205E0BC4200F03B81002C37
:109B800000F03881B1683368481CB0605A54D6E997
:109B90000130984204F1FF34EED33046FFF710FE57
:109BA0002022E9E7D8F80020131DC8F80030B36878
:109BB00031681768581C3022B060CA54D6E90123B6
:109BC000934280F0EF803268581C7821B060D15405
:109BD000D6E901329A4280F0E0800F2F03D93B464C
:109BE0001B090F2BFCD84FF0805406E00F2C4FEAD6
:109BF00014137FF649AFB2681C46B7FBF4F319F8AB
:109C000003B0BBF10A0F04FB137754D03368511C27
:109C1000B16003F802B0D6E901329A42E6D3304689
:109C2000FFF7CEFDE2E7D8F80020111DC8F80010BC
:109C3000D2F800B08BEAEB72A2EBEB72092A7FF745
:109C400000AFDFF8C8C2012011466329ACFB02E275
:109C500000F101004FEAD202F6DC9842024638BF1A
:109C60001A460292002C45D1F4E6D8F80020111DC6
:109C7000C8F8001011683046CDE900471022FFF700
:109C8000BBFD013501E7D8F800301A1DC8F80020E7
:109C90001C78B3680A2C00F011813268591CB1603D
:109CA000D454D6E901329A42FFF4EEAE3046FFF7C3
:109CB00087FD0135E9E63368511CB16003F802A065
:109CC000D6E901329A42A1D33046FFF779FDB26856
:109CD0009CE7304605B0BDE8F04FFFF771BDB368B3
:109CE0003168581CB060CA54D6E901329A42DDD2BC
:109CF0000135CAE6BBF1000F59DB7A0757D4B80724
:109D000002D5002B3FF4ADAEF9073FF5AAAE94B1F2
:109D100020220299A142BFF4A4AEB168481CB060F1
:109D200030684254D6E90101814204F1FF3480F0E9
:109D3000D480002CEDD1002493E69BF80030002B5A
:109D400000F0E080B0685F46CBF101020A2B02EB25
:109D5000070B3CD0411CB16031680B54D6E901308F
:109D6000984226D217F8013F002BEFD15C457FF6D1
:109D70008BAE202702E05C453FF486AEB2683368C4
:109D8000511CB1609F54D6E901329A4204F1FF346C
:109D9000F1D33046FFF714FDEDE73046FFF710FD35
:109DA000B2681AE73046FFF70BFDB3680BE7013CDA
:109DB000A5E730460292FFF703FD17F8013F002B9D
:109DC000D4D0029AB0680A2B02EB070BC2D1411C17
:109DD000B160316801F800A0D6E901108842B9D31A
:109DE0003046CDE90232FFF7EBFCDDE90232B06824
:109DF000B0E770479BF80040002C3FF445AE0A2CBA
:109E0000B0680ED03368421CB2601C54D6E90130F1
:109E1000984214D21BF8014F002C3FF435AE0A2CA7
:109E2000F0D13368421CB26003F800A0D6E90130DB
:109E30009842E7D33046FFF7C3FCB068E2E730460C
:109E4000FFF7BEFC1BF8014F002CD8D11CE6002BFD
:109E50007FF413AE8CB130220299A142BFF40DAE53
:109E6000B168481CB06030684254D6E901018142B3
:109E700004F1FF343BD2002CEED10024FDE5B168A3
:109E80004A1CB26032682D205054D6E9012191421B
:109E9000CBF1000BFFF4ECAD30460393FFF790FCE1
:109EA000039BE5E5B1684A1CB26032682B20505430
:109EB000D6E901219142FFF4DBADEDE73268591C90
:109EC000B16002F803A0D6E901239342FFF4E5AEA6
:109ED0003046FFF775FCB368DFE630460393FFF7C3
:109EE0006FFC039B2022002C7FF413AF23E7304646
:109EF0000393FFF765FC039B3022BCE7F9073FF5AE
:109F0000B0AD18E79B4631E7EC400300CDCCCCCC9C
:109F100010B582B040B10B46B9B103601B68114661
:109F200002B0BDE8104018470A480B4C0B4B0C4AD6
:109F30000C49001BC0080E24000440F001000094EE
:109F4000FCF732FF0E2002B010BD0248024C034B5A
:109F5000054AEDE740ED0300E8EC0300B0420300E2
:109F6000FC40030004410300304103002DE9F041AF
:109F700082B0002858D0002A68D0D0F800E0BEF1A6
:109F8000000F68D01D4673B34768D7F80480B3FB51
:109F9000F8F708FB1737002F37D18F073AD112F0A7
:109FA000030F3CD1C768B94211D23348334C344B0C
:109FB000344A3549001BC0081024000440F0010059
:109FC0000094FCF7F1FE204602B0BDE8F081046980
:109FD0004E1E3544A542E8D8DEF80C40A44602B037
:109FE000BDE8F04160472448244C254B274A2649C8
:109FF000001BC0080924000440F001000094FCF795
:10A00000D3FE204602B0BDE8F0811B481B4C1C4B20
:10A010001F4AECE71848194C194B1E4AC9E7164865
:10A02000164C174B1C4AC4E71348144C144B1B4ADC
:10A030001549001BC0080E24000440F001000094E4
:10A04000FCF7B2FE204602B0BDE8F0810A480B4C96
:10A050000B4B134AECE7094C0748094B114A0A49D4
:10A06000001BC0080824000440F001000094FCF725
:10A070009BFE2046A8E700BF40ED0300E8EC03008C
:10A08000C442030000420300044103004C410300AA
:10A0900098410300C4410300DC410300FC4003007D
:10A0A0009041030038410300F0B583B0002843D04D
:10A0B000D0F800C0BCF1000F4ED03AB34768D7F8D3
:10A0C00000E00EF1FF370F4231D1C768B94210D21C
:10A0D00029482A4C2A4B2B4A2B49001BC008102424
:10A0E000000440F001000094FCF75EFE204603B03F
:10A0F000F0BD04694D1E0EFB0255A542E8D8DCF800
:10A100001040A44603B0BDE8F04060471B4C1A481D
:10A110001B4B1E4A1C49001BC0080924000440F0C8
:10A1200001000094FCF740FE204603B0F0BD124849
:10A13000124C134B164ACFE7104C0F48104B154AE0
:10A140001149001BC0080E24000440F001000094D7
:10A15000FCF72AFE2046CAE7084C0748084B0E4A7F
:10A160000949001BC0080824000440F001000094C5
:10A17000FCF71AFE2046BAE740ED0300E8EC0300C6
:10A18000D842030050420300044103004C41030045
:10A1900028420300FC4003003841030029DF7047D8
:10A1A00028DF70470846704700207047024B187A36
:10A1B000003818BF01207047142C0020034B187A78
:10A1C0000122B0FA80F05A7440097047142C002024
:10A1D00008B510461A4609F0D1FC002008BD00BFA2
:10A1E00008B514220021044809F0D6FC0348FFF703
:10A1F000E7F8002008BD00BF142C0020042C00202C
:10A2000038B50A4C0A4B43602046FFF749FA08B1BB
:10A21000002038BD09F010F8064905461C238C22A1
:10A2200005482574FFF7B4F8002038BD142C002031
:10A23000EC420300782B0020042C002030B5394D6F
:10A240002B7A87B0002B39D0374B1C6802232B7236
:10A250002379002B3DD0012B24D022689368C3B111
:10A260000023CDE9033302930093A36805930323EE
:10A2700001932379002B48D0012B07D1E368616952
:10A2800004911B03022102938DF800109368684625
:10A2900098470023254926482B726B60FFF720F969
:10A2A00007B030BDD4E903031844FFF779FF20B3AA
:10A2B0001128D2D101232B7207B030BD1B491C4895
:10A2C000FFF7DEF8184B044618600028BED168601E
:10A2D000E6E7D4E90520121AB2F5805F28BF4FF4F3
:10A2E0008052D4E903139208012A38BF01220144A5
:10A2F0001844FFF753FF0028DAD12B7C002BCFD175
:10A300000146022000F016F8CAE72069E16801233F
:10A31000CDE902018DF800306369049393686846C3
:10A320009847B6E7142C00202C2C0020282C002065
:10A33000042C0020831E012B3FD810B5334C237A08
:10A3400086B0002B37D0022B31D103283AD0304BC6
:10A3500000221B68E2601A79002A40D0012A26D127
:10A36000D3E9042101328A421A6120D100202072EF
:10A3700019688A68BAB10022CDE9032202920092DC
:10A380009A68019005921A79002A35D0012A07D1DE
:10A39000DA685B6904931303022202938DF80020AC
:10A3A0008B68684698471B491B48FFF799F8637C00
:10A3B00023B9FFF743FF06B010BD704708F02CFF2C
:10A3C00006B010BDE3680133082B01D8E360EEE767
:10A3D0000F4B00221B68E26022720D20C8E7D3E910
:10A3E0000512881AB0F5805F94BF121802F58052EA
:10A3F00091429A61DBD1B9E7012218698DF80020FA
:10A40000DA685B690493CDE90202C9E7142C0020E5
:10A410002C2C0020282C0020042C00202DE9F047B3
:10A4200084B007460E461A4803A915469A46FEF719
:10A43000E9FF40B3044600211C228846DFF854900F
:10A4400009F0AAFB0C9B12482760C4E90356A360DD
:10A45000C4F814A003A984F80480FFF701F809F1F7
:10A460000400FFF71DF918B1404604B0BDE8F087BD
:10A4700099F81130002BF8D10190FFF7DFFE019819
:10A4800004B0BDE8F087042004B0BDE8F08700BF49
:10A49000042C0020142C00202DE9F04385B08146C7
:10A4A0000D46194803A916461F46FEF7ABFF30B309
:10A4B00004461C22002109F06FFBDFF8508012488F
:10A4C000C4F8009001232D0BC4E90275666103A94D
:10A4D0002371FEF7C5FF08F10400FFF7E1F818B19A
:10A4E000002005B0BDE8F08398F81130002BF8D1BA
:10A4F0000190FFF7A3FE019805B0BDE8F0830420AA
:10A5000005B0BDE8F08300BF042C0020142C00200F
:10A5100000F0FD03012B00D0704730B53B4DA0F19A
:10A520000100B0FA80F02B7A4009002287B028742D
:10A530006A74002B4AD0364B1C6802232B72237995
:10A54000002B4ED0012B07D1D4E903031844FFF7A9
:10A5500027FE48B311281BD0226893687BB10023E3
:10A56000CDE9033302930093A3680593032301937A
:10A5700023790BB3012B0ED09368684698470023CC
:10A58000244925482B726B60FEF7AAFF07B030BD47
:10A5900001232B72FAE7E368616904911B0302212E
:10A5A00002938DF80010E7E72B7C002BEED10146DB
:10A5B0000220FFF7BFFEE9E72069E16801238DF87B
:10A5C000003063690493CDE90201D5E711491248CF
:10A5D000FEF756FF0E4B044618600028ADD16860A8
:10A5E000D4E7D4E90520121AB2F5805F28BF4FF4F2
:10A5F0008052D4E903139208012A38BF0122014492
:10A600001844FFF7CBFD0028A4D1CDE7142C00207F
:10A610002C2C0020282C0020042C0020FFF770B8E0
:10A620002DE9F041058A0331043D4E198046B6FB01
:10A63000F5F6FFF781F8A0B3F6B24FF48073013E50
:10A640000446C580C0F8008083802BD003460025D7
:10A6500008E06279AE4202F1010262713860C0F82E
:10A6600000801FD040461F46FFF766F801350346BD
:10A670000028EED16779791E17D02246013399421E
:10A680001268FBD1D2F800805FB12668002501E096
:10A6900034463668214601354046FFF775F8AF422B
:10A6A000F6D800242046BDE8F08120682146FFF757
:10A6B0006BF8F6E704300121FEF7D6BF2DE9F04133
:10A6C000012104460430FEF7DDFF10F0FF0301D046
:10A6D000BDE8F0816779791E16D022460133994290
:10A6E0001268FBD1D2F80080002FF1D02668002537
:10A6F00001E034463668214601354046FFF744F80C
:10A70000AF42F6D8BDE8F08120682146BDE8F041AF
:10A71000FFF73AB82DE9F8430546C6884079144654
:10A7200006FB00F2043A04EB030C1F1D624538BF20
:10A73000D41ABE428846B7FBF6F106FB117002D868
:10A7400001392D68FCD1371AA74228BF27469CB192
:10A750004FF000090430E41B28443A4608EB090195
:10A7600009F00CFAA642B9442D6837464FF00000B4
:10A7700028BF2746002CEDD1BDE8F8832DE9F8432A
:10A780000546C6884079144606FB00F2043A04EBFD
:10A79000030C1F1D624538BFD41ABE428846B7FB62
:10A7A000F6F106FB117002D801392D68FCD1371A79
:10A7B000A74228BF27469CB14FF000090430291852
:10A7C000E41B3A4608EB090009F0D8F9A642B9445F
:10A7D0002D6837464FF0000028BF2746002CEDD1EA
:10A7E000BDE8F883064A074B10B5002414701C60BE
:10A7F000BFF35F8F0449054800F018F8204610BDEC
:10A80000382C00203C2C002024430300302C002056
:10A810008268002393608268136182685361826852
:10A82000D3608268536082681360704701600B6870
:10A8300043604A68934204BF00234360704700BFEF
:10A84000436843B1026891680B4443605268934285
:10A8500004BF00234360704770B544680646206813
:10A860000D4618B908E02468206828B1B368294665
:10A8700098470028F7D120682860256070BD00BF88
:10A880004368186808B102681A607047436818681E
:10A89000704700BF4368186818B908E003460068AD
:10A8A00028B18142FAD10A681A60012070477047C6
:10A8B000114910B4A1F5947205E052F83330984272
:10A8C00038BF21460CD28C1AE30F03EBE4035B1074
:10A8D000914202EBC304F0D808485DF8044B70477E
:10A8E00002D904F10802EEE76068044B5DF8044BFE
:10A8F000002808BF18467047644803002847030033
:10A9000030B4974B1B685D1C00F00281954A1268B9
:10A91000062B00F0F280944B1B78062B00F0DC80B5
:10A920008F4B1B685C1C00F0D0808E4A1268062B8F
:10A9300000F0C0808C4B1B78062B00F0A880884B61
:10A940001B68581C00F09C80864A1268062B00F099
:10A950008980854B1B78062B66D0814B1B68591C60
:10A960002AD0804A062B11681BD0804AD2F8883042
:10A9700043F47003C2F88830BFF34F8FBFF36F8F7B
:10A980004FF01023D3F80022002AC0F28181D3F8BF
:10A990000432002BC0F27C81754B764A1A6030BCC1
:10A9A0007047CA1E032A40F211810339032940F27D
:10A9B000B6806C4B1B68C2E06B496F4A097812681D
:10A9C0000629C2F30312D0D1033A032A40F2FE80D3
:10A9D000654A694B12781B68062AC3F30313C4D176
:10A9E000033B032B40F29B805F4A634B12781B684A
:10A9F000062AC3F3031308BF4FF0FF32B5D1033B60
:10AA0000032B40F2A280574B1B68062AADD1033BB3
:10AA1000032BAAD8594AD35C002BA6D0584A1368F6
:10AA200043F480631360A0E7534B1B68C3F3031325
:10AA3000033B032B91D8534AD25C12B1524A0321F3
:10AA40001160524AD35C002B87D0514A514C524975
:10AA5000524B05201060012500203F222560086030
:10AA60001A607AE7033A032A3FF673AF4FF0804348
:10AA70000022C3F80C21C3F81021C3F8382568E779
:10AA80003D4A394B12681B78C2F303125EE73A4B1A
:10AA90001B68C3F30313033B032B3FF650AF404A3D
:10AAA000D35C002B3FF44BAF3E4AD36823F0807356
:10AAB000D36044E7033A032A3FF63CAF3A4B3B4AA4
:10AAC0001B68C3F34233136034E72B4A264B1268EA
:10AAD0001B78C2F303122AE7274B1B68C3F3031347
:10AAE000033B032B3FF61CAF314AD35C002B3FF4F2
:10AAF00017AF304B304A1A6012E7033A032A3FF689
:10AB00000AAF2E4B2E4A1B68C3F30423136002E7DF
:10AB1000194A154B12681B78C2F30312F8E6294B49
:10AB20000F4A1B681268284903F04F030B60531C3F
:10AB30003FF45AAF0B4B062A1B687FF416AF033B5A
:10AB4000032B4FF006023FF65EAF4FF08041D1F885
:10AB5000003413F0010F034B40F092801B6854E760
:10AB60003001001034010010E00F00F000ED00E0B3
:10AB70008C2200200090D003E80F00F0684803000A
:10AB80003C1700406C480300A00500406C480300DF
:10AB90001056004088560040185600401456004099
:10ABA0006C480300F0ED00E0440200103C0500405A
:10ABB0006C48030074C007400DF0ADBA24030010C8
:10ABC0004035014058020010E40E004049498A5CBB
:10ABD000002A48D04FF08053474AD3F80414C2F8F3
:10ABE0002015D3F80814C2F82415D3F80C14C2F8B1
:10ABF0002815D3F81014C2F82C15D3F81414C2F881
:10AC00003015D3F81814C2F83415D3F81C14C2F850
:10AC10004015D3F82014C2F84415D3F82414C2F810
:10AC20004815D3F82814C2F84C15D3F82C14C2F8E0
:10AC30005015D3F83014C2F85415D3F83414C2F8B0
:10AC40006015D3F83814C2F86415D3F83C14C2F870
:10AC50006815D3F840142948C2F86C15D3F8441489
:10AC60000368C2F870155A1C3FF4B2AE244A062B92
:10AC700011687FF47AAE033903293FF69AAE4EE7A6
:10AC80001E4A1B6812686FF00100C1F80004BCE6A0
:10AC90001C4A0123C2F80435D2F80034002BFBD043
:10ACA0004FF010231521174AC3F80012D2F80034D0
:10ACB000002BFBD04FF010231521124AC3F80412C9
:10ACC000D2F80034002BFBD000230E49C2F8043523
:10ACD000D1F80034002BFBD0BFF34F8F0A490B4B48
:10ACE000CA6802F4E0621343CB60BFF34F8F00BF2A
:10ACF000FDE700BF6448030000C0004030010010C1
:10AD00003401001000E0014000ED00E00400FA050D
:10AD10004FF0A042044B1B5CD2F80405D840C0435E
:10AD200000F00100704700BF74480300044B195C39
:10AD30004FF0A04201238B40C2F80C35704700BF92
:10AD400074480300044B195C4FF0A04201238B4070
:10AD5000C2F80835704700BF744803004FF0A043A5
:10AD600010B44FF480204FF400344FF400214FF41E
:10AD70008012C3F80845C3F80805C3F80815C3F8DE
:10AD800008255DF8044B70474FF0A04310B44FF412
:10AD900080204FF400344FF400214FF48012C3F8A8
:10ADA0000C45C3F80C05C3F80C15C3F80C255DF869
:10ADB000044B7047074B4FF0A041185CD1F80435A5
:10ADC0000122824022EA03001340C1F80805C1F8BD
:10ADD0000C357047744803004FF0A042044B1B5CD5
:10ADE000D2F81005D840C04300F00100704700BF02
:10ADF000704803000D2809D00E2809D00F2809D06B
:10AE000010280CBF03204FF0FF3070470020704720
:10AE10000120704702207047014B185C704700BF4B
:10AE200070480300C20730B41AD54FF0A043032284
:10AE3000C3F844274FF40035C3F848274FF4802463
:10AE4000C3F84C274FF40021C3F850274FF4801269
:10AE5000C3F80855C3F80845C3F80815C3F8082512
:10AE600083070AD54FF0A0430C22C3F83427C3F858
:10AE70003827C3F83C27C3F8402730BC704700BFD1
:10AE800010B568B90E4CA368012262703BB1D3E9DA
:10AE900000230020A2609847A368002BF7D110BDC3
:10AEA0000128FCD1064C2369A070002BF7D0D3E910
:10AEB00000230120226198472369002BF7D110BDA0
:10AEC000402C002070B910B5074CA36801226270B5
:10AED0003BB1D3E900230020A2609847A368002B70
:10AEE000F7D110BD704700BF402C002030B50128BD
:10AEF00083B004D0032821D0B0B103B030BD294CB9
:10AF000000230DF107008DF80730FCF711FE2378C0
:10AF10006BB3E3689DF8070001330122E360A27080
:10AF2000FCF72CFE03B030BD1F4B0122C3F880207C
:10AF3000BFF34F8FBFF36F8F03B030BD194C00F0DC
:10AF4000B9F800230DF107008DF80730FCF7F0FD8C
:10AF5000E368013BE360E3681BB9144BD3F800548A
:10AF6000C5B19DF80700FCF709FE03B030BD1048DD
:10AF70006360A3602361E36000F090F808F05CF97F
:10AF800060B10A4A01232370D2F80024002AC0D0FD
:10AF9000A370BEE700F0A0F8A570E2E700F08AF821
:10AFA000EFE700BF402C002000E100E0000001407E
:10AFB00081AE020030B585B0047845688DF8004058
:10AFC000D0E90240064A074B039053F8213001951F
:10AFD00052F821108DF808406846984705B030BDFA
:10AFE000542C0020582C002030B585B004784568DA
:10AFF0008DF80040D0E90240064A074B039053F811
:10B000002130019552F821108DF808406846984784
:10B0100005B030BD542C0020582C0020F0B51A4B40
:10B0200090F800C0194C1A4D91F81DE044F82C20FE
:10B030000746086945F82C0003F80CE00C46164654
:10B040000FCC89B06D460FC594E80F0085E80F005E
:10B05000CDF810C0BEF1000F0AD0002E0D4A69468F
:10B0600007F1040008BF324600F0C8FF09B0F0BD88
:10B07000002E094A694607F10C0008BF324600F06D
:10B0800061FD09B0F0BD00BF84380020582C0020BD
:10B09000542C0020B5AF0200E9AF0200044A137936
:10B0A00023B90121106091801846704785207047B0
:10B0B0005C2C0020074B1A68D20704D4C02283F806
:10B0C000002301221A604FF080430122C3F81825A3
:10B0D000704700BF00E100E010B40B4B0B494FF08C
:10B0E000804200200224C2F8084383B018601B6825
:10B0F0000193012301980B60D2F81834DB03FBD4D1
:10B1000003B05DF8044B7047040100400C000040A0
:10B1100010B5174B1A6882B062B10021154A196048
:10B120001B68507900934FF080410123009CC1F8C7
:10B13000083398B1104B1A68BAB100221A601B6824
:10B1400001934FF0804202210A4B0198C2F8081384
:10B150001B68012002B0BDE8104018471168537108
:10B160008847054B1A68002AE7D102B010BD00BF1E
:10B17000000100405C2C002004010040F0B5224C8E
:10B1800094F8583083B0002B3BD14FF0FF3121FAB7
:10B1900003F2D20748BFE21803F1010348BF82F867
:10B1A0003010202BF3D14FF0FF334FF0FF364FF02C
:10B1B000FF370422002115482365C4E90233C4E99E
:10B1C0000433C4E90633C4E90833C4E90A33C4E9E3
:10B1D000006708F0E1FC0E4BC02283F806234022F2
:10B1E0001A600C4B0C4A002018601B680193019DEB
:10B1F00001214FF0004384F85810C2F8043303B023
:10B20000F0BD082003B0F0BD682C0020BC2C00204D
:10B2100000E100E07C61004000600040034B93F8D7
:10B220005800003818BF0120704700BF682C00206C
:10B23000F0B46F4B1D1895F93040002C61DA8C7812
:10B24000A707C4F3400C53D41C6A013400F0C88033
:10B250005C6A013400F0BD800C260A2453F82450A7
:10B26000013552D0651CB5423FD253F825700137E5
:10B2700000F0A780A51CB54237D253F825700137DE
:10B2800000F09F80E71CB7422FD253F827500135BA
:10B290003AD0271DB74228D253F82750013533D072
:10B2A000671DB74221D253F8275001352CD0A71D76
:10B2B000B7421AD253F82750013525D0E71DB742BF
:10B2C00013D253F8275001351ED004F10807B742B6
:10B2D0000BD253F82750013516D00934B44204D2AA
:10B2E000DC6A013408BF0B240FD00420F0BC704787
:10B2F0001C68013467D05C68013460D008260224E1
:10B30000ACE70820F0BC70473C461E1865B243F815
:10B31000242086F83050BCF1000F02D11C4484F880
:10B3200048008A78540714D4D6073ED44C784FF09E
:10B33000A04600F5E072A40046F822402D4EC40855
:10B3400000F0070C375D012202FA0CF23A43325545
:10B350008A7812F002021CD0AB0003F1804303F59F
:10B36000C0430978D3F8104524F4473424F44074DA
:10B37000C3F8104502020904D3F8100501F4403166
:10B3800002F4F8520A430243C3F810250020F0BC2F
:10B390007047083D2B44087893F8501041EA80111B
:10B3A00083F850101046F0BC7047820002F1A042B2
:10B3B000D2F8004724F00204C2F80047BEE7012497
:10B3C000A3E72C46A1E7002485F830401A60254603
:10B3D000A7E7092685F830605A62344635469DE76E
:10B3E000082685F830601A623446354696E700BF75
:10B3F000682C0020BC2C002070B42C4C251883B085
:10B4000095F93020072A1CDD224492F848309B0928
:10B41000032B40D0012B0CBF4FF400334FF44033CB
:10B42000800000F1A040D0F8002722F44032C0F89C
:10B430000027D0F800271343C0F8003703B070BCD2
:10B440007047D3B2072BF9D8900000F1804000F587
:10B45000C04002F140039B00D0F810659BB203F19D
:10B46000804303F5C04346F00106C0F81065002094
:10B4700018601B680193019B0029DFD095F93030DB
:10B4800054F82330002BD9D00949012303FA02F2E2
:10B49000C1F80423D2E74FF0A043D3F81035C340DE
:10B4A00003F0010302331B04BAE700BF682C00203D
:10B4B000006000404FF0A043D3F8103523FA00F0AD
:10B4C00000F00100704700BFF0B585B0C84A002306
:10B4D00001931168012900F0E7811E46C54B1A68E7
:10B4E000012A00F0D381C44B1A68012A00F0C08100
:10B4F000C24B1A68012A00F0AD81C14B1A68012ABB
:10B5000000F09A81BF4B1A68012A00F08781BE4B78
:10B510001A68012A00F05D81BC4B1A68012A07D025
:10B52000BB4B1A68012A00F0CB81FEB905B0F0BD13
:10B53000B84AD2F804231206F2D500221A6019681C
:10B540000291196E0298012903F1600346F080060A
:10B550000CD11A601B6803934FF0A043039AD3F8F1
:10B5600020250192C3F8202546F00046AA4F00246A
:10B570000125A30003F180432E4203F5C0434FEAA7
:10B5800045050BD0D3F8100557F82420D3F8101533
:10B59000C0F30420C1F3014102B190470134082CEB
:10B5A000E7D1002EC2DA9C4C01254FF0A04694F959
:10B5B0005000471C3DD0C0F3C20204AB1A4400F057
:10B5C000070312F80C2C05FA03F31A42C1B200F07B
:10B5D0003F002ED0830003F1A04305FA00FCD3F80E
:10B5E0000027D3F8007727F44037C3F80077C2F379
:10B5F0000142D3F80077022A0CBF4FF4403E4FF4CB
:10B60000003E4EEA070E2718C3F800E7C6F820C52B
:10B6100097F9303054F823305BB18909032900F0E1
:10B620007181022A00F06B81032A02D1022900F005
:10B63000698194F95100411C3DD0C0F3C20204ABB2
:10B640001A4400F0070312F80C2C05FA03F31A420F
:10B65000C1B200F03F002ED0830003F1A04305FAF1
:10B6600000FCD3F80027D3F8007727F44037C3F85D
:10B670000077C2F30142D3F80077022A0CBF4FF4DF
:10B68000403E4FF4003E4EEA070E2718C3F800E78D
:10B69000C6F820C597F9303054F823305BB18909DA
:10B6A000032900F02581022A00F01F81032A02D11C
:10B6B000022900F01D8194F95200421C3DD0C0F3D4
:10B6C000C20204AB1A4400F0070312F80C2C05FA6E
:10B6D00003F31A42C1B200F03F002ED0830003F101
:10B6E000A04305FA00FCD3F80027D3F8007727F42D
:10B6F0004037C3F80077C2F30142D3F80077022A3B
:10B700000CBF4FF4403E4FF4003E4EEA070E2718A0
:10B71000C3F800E7C6F820C597F9303054F8233055
:10B720005BB18909032900F0DE80022A00F0D8808D
:10B73000032A02D1022900F0D68094F95300431C59
:10B740003DD0C0F3C20204AB1A4400F0070312F864
:10B750000C2C05FA03F31A42C1B200F03F002ED0C0
:10B76000830003F1A04305FA00FCD3F80027D3F8C7
:10B77000007727F44037C3F80077C2F30142D3F8CB
:10B780000077022A0CBF4FF4403E4FF4003E4EEAD1
:10B79000070E2718C3F800E7C6F820C597F9303020
:10B7A00054F823305BB18909032900F0A680022AEE
:10B7B00000F0A080032A02D1022900F09E80D6F872
:10B7C00020350193C6F82035002B7FF4F0AE05B08C
:10B7D000F0BD104AD2F8042351067FF59DAE002239
:10B7E0001A601B680293029B46F0400694E600BF75
:10B7F0000061004004610040086100400C610040AD
:10B800001061004014610040186100401C6100405C
:10B810007C61004000600040682C00203A4AD2F869
:10B82000042390067FF573AE00221A601B68029312
:10B83000029B46F020066AE6334AD2F80423D40677
:10B840007FF560AE00221A601B680293029B46F0EF
:10B85000100657E62C4AD2F8042315077FF54DAEA3
:10B8600000221A601B680293029B46F0080644E619
:10B87000254AD2F8042357077FF53AAE00221A6012
:10B880001B680293029B46F0040631E61E4AD2F87A
:10B89000042392077FF527AE00221A601B680293EB
:10B8A000029B46F002061EE61749D1F8046316F023
:10B8B00001063FF413AE136013680293029B0DE67A
:10B8C00000221A601B6803934FF0A043039AD3F839
:10B8D00020250192C3F82025002E3FF464AE43E6F4
:10B8E00001297FF42AAF984727E701297FF4E3AEC7
:10B8F0009847E0E601297FF462AF98475FE70129A6
:10B900007FF497AE984794E600600040014B1B68B7
:10B91000184700BFC42C0020114B98421DD130B5F0
:10B9200083B000230DF107008DF807300D46FCF7BA
:10B93000FFF80C4B1C794CB99DF807001D600122E3
:10B940001A71FCF71BF9204603B030BD9DF80700C3
:10B95000FCF714F9112003B030BD0020704700BF80
:10B9600000200040C42C0020034B984203D1034B1D
:10B9700000221A601A71704700200040C42C002079
:10B9800030B56E4AD2F8043399058BB068D5D2F839
:10B990002431002B64D00023C2F82431D2F82431A2
:10B9A00001934FF40171664B0198C2F8081393F8A4
:10B9B000291009B901215160604902228DF818202F
:10B9C000D1F88024C1F880249869D96809920024AC
:10B9D0000025CDE90710C3E90645D3E9001206A802
:10B9E0009047564AD2F81C31C3B1554B5869196A71
:10B9F00088426AD993F8281001F0FF00002964D129
:10BA0000C2F81C01D2F81C11039103999C68186AB2
:10BA1000196A205C01311962C2F81C05474AD2F844
:10BA20004431DBB10021464BC2F84411D2F8440145
:10BA300093F829100090009809B1012111609A69CA
:10BA400062B1586AD96800229A610122CDE90710D3
:10BA50008DF8182006A8D3E9001290470BB030BD2E
:10BA6000364AD2F804335B07BBD5D2F80831002B35
:10BA7000B7D0334B996900293ED00021C2F8081194
:10BA8000D2F8081104910499D868596AD2F8182597
:10BA900042545A6A996901325A625A6A8A42A0D15A
:10BAA000DA69002A31D0DD685C6A18699A6101217F
:10BAB0000022D860DA615A628DF81810CDE9075477
:10BAC000D3E9001206A890478BE71C4A0021C2F870
:10BAD0001C11D2F81C210292029A5A69002A9DD0A8
